:020000040000fa
:080000000002040000000000f2
:020000040000fa
:040008002a070000c3
:020000040000fa
:04000c002a070000bf
:020000040000fa
:040010002a070000bb
:020000040000fa
:040014002a070000b7
:020000040000fa
:040018002a070000b3
:020000040000fa
:04001c002a070000af
:020000040000fa
:040020002a070000ab
:020000040000fa
:040024002a070000a7
:020000040000fa
:040028002a070000a3
:020000040000fa
:04002c002a0700009f
:020000040000fa
:040030002a0700009b
:020000040000fa
:0400340002030000c3
:020000040000fa
:040038002a07000093
:020000040000fa
:04003c002a0700008f
:020000040000fa
:040040002a0700008b
:020000040000fa
:040044002a07000087
:020000040000fa
:040048002a07000083
:020000040000fa
:04004c002a0700007f
:020000040000fa
:040050002a0700007b
:020000040000fa
:040054002a07000077
:020000040000fa
:040058002a07000073
:020000040000fa
:04005c002a0700006f
:020000040000fa
:040060002a0700006b
:020000040000fa
:040064002a07000067
:020000040000fa
:04006800b0050000df
:020000040000fa
:04006c002a0700005f
:020000040000fa
:040070002a0700005b
:020000040000fa
:04007400d4020000b2
:020000040000fa
:040078002a07000053
:020000040000fa
:04007c002a0700004f
:020000040000fa
:040080002a0700004b
:020000040000fa
:040084002a07000047
:020000040000fa
:040088002a07000043
:020000040000fa
:04008c002a0700003f
:020000040000fa
:040090002a0700003b
:020000040000fa
:040094002a07000037
:020000040000fa
:040098003803000029
:020000040000fa
:04009c002a0700002f
:020000040000fa
:0400a0002a0700002b
:020000040000fa
:0400a4002a07000027
:020000040000fa
:0400a8002a07000023
:020000040000fa
:0400ac002a0700001f
:020000040000fa
:0400b0002a0700001b
:020000040000fa
:0400b4002a07000017
:020000040000fa
:0400b8002a07000013
:020000040000fa
:0400bc002a0700000f
:020000040000fa
:0400c0002a0700000b
:020000040000fa
:0400c4002a07000007
:020000040000fa
:0400c8002a07000003
:020000040000fa
:0400cc002a070000ff
:020000040000fa
:0400d0002a070000fb
:020000040000fa
:0400d4002a070000f7
:020000040000fa
:0400d8002a070000f3
:020000040000fa
:0400dc002a070000ef
:020000040000fa
:0400e0002a070000eb
:020000040000fa
:0400e4002a070000e7
:020000040000fa
:0400e8002a070000e3
:020000040000fa
:0400ec002a070000df
:020000040000fa
:0400f0005e030000ab
:020000040000fa
:0400f4002a070000d7
:020000040000fa
:0400f8002a070000d3
:020000040000fa
:0400fc002a070000cf
:020000040000fa
:040100002a070000ca
:020000040000fa
:040104002a070000c6
:020000040000fa
:040108002a070000c2
:020000040000fa
:04010c002a070000be
:020000040000fa
:040110002a070000ba
:020000040000fa
:040114002a070000b6
:020000040000fa
:040118002a070000b2
:020000040000fa
:04011c002a070000ae
:020000040000fa
:040120002a070000aa
:020000040000fa
:040124002a070000a6
:020000040000fa
:040128002a070000a2
:020000040000fa
:04012c002a0700009e
:020000040000fa
:040130002a0700009a
:020000040000fa
:040134002a07000096
:020000040000fa
:040138002a07000092
:020000040000fa
:04013c002a0700008e
:020000040000fa
:040140002a0700008a
:020000040000fa
:040144002a07000086
:020000040000fa
:040148002a07000082
:020000040000fa
:040208002a070000c1
:020000040000fa
:04020c002a070000bd
:020000040000fa
:040210002a070000b9
:020000040000fa
:040214002a070000b5
:020000040000fa
:040218002a070000b1
:020000040000fa
:04021c002a070000ad
:020000040000fa
:040220002a070000a9
:020000040000fa
:040224002a070000a5
:020000040000fa
:040228002a070000a1
:020000040000fa
:04022c002a0700009d
:020000040000fa
:040230002a07000099
:020000040000fa
:0402340002030000c1
:020000040000fa
:040238002a07000091
:020000040000fa
:04023c002a0700008d
:020000040000fa
:040240002a07000089
:020000040000fa
:040244002a07000085
:020000040000fa
:040248002a07000081
:020000040000fa
:04024c002a0700007d
:020000040000fa
:040250002a07000079
:020000040000fa
:040254002a07000075
:020000040000fa
:040258002a07000071
:020000040000fa
:04025c002a0700006d
:020000040000fa
:040260002a07000069
:020000040000fa
:040264002a07000065
:020000040000fa
:04026800b0050000dd
:020000040000fa
:04026c002a0700005d
:020000040000fa
:040270002a07000059
:020000040000fa
:04027400d4020000b0
:020000040000fa
:040278002a07000051
:020000040000fa
:04027c002a0700004d
:020000040000fa
:040280002a07000049
:020000040000fa
:040284002a07000045
:020000040000fa
:040288002a07000041
:020000040000fa
:04028c002a0700003d
:020000040000fa
:040290002a07000039
:020000040000fa
:040294002a07000035
:020000040000fa
:040298003803000027
:020000040000fa
:04029c002a0700002d
:020000040000fa
:0402a0002a07000029
:020000040000fa
:0402a4002a07000025
:020000040000fa
:0402a8002a07000021
:020000040000fa
:0402ac002a0700001d
:020000040000fa
:0402b0002a07000019
:020000040000fa
:0402b4002a07000015
:020000040000fa
:0402b8002a07000011
:020000040000fa
:0402bc002a0700000d
:020000040000fa
:0402c0002a07000009
:020000040000fa
:0402c4002a07000005
:020000040000fa
:0402c8002a07000001
:020000040000fa
:0402cc002a070000fd
:020000040000fa
:0402d0002a070000f9
:020000040000fa
:0402d4002a070000f5
:020000040000fa
:0402d8002a070000f1
:020000040000fa
:0402dc002a070000ed
:020000040000fa
:0402e0002a070000e9
:020000040000fa
:0402e4002a070000e5
:020000040000fa
:0402e8002a070000e1
:020000040000fa
:0402ec002a070000dd
:020000040000fa
:0402f0005e030000a9
:020000040000fa
:0402f4002a070000d5
:020000040000fa
:0402f8002a070000d1
:020000040000fa
:0402fc002a070000cd
:020000040000fa
:040300002a070000c8
:020000040000fa
:040304002a070000c4
:020000040000fa
:040308002a070000c0
:020000040000fa
:04030c002a070000bc
:020000040000fa
:040310002a070000b8
:020000040000fa
:040314002a070000b4
:020000040000fa
:040318002a070000b0
:020000040000fa
:04031c002a070000ac
:020000040000fa
:040320002a070000a8
:020000040000fa
:040324002a070000a4
:020000040000fa
:040328002a070000a0
:020000040000fa
:04032c002a0700009c
:020000040000fa
:040330002a07000098
:020000040000fa
:040334002a07000094
:020000040000fa
:040338002a07000090
:020000040000fa
:04033c002a0700008c
:020000040000fa
:040340002a07000088
:020000040000fa
:040344002a07000084
:020000040000fa
:040348002a07000080
:020000040000fa
:100400002f9920000e7f22000e01880000000000be
:10041000000020000000e000020032000001200087
:1004200020028800140007008c0207000000e00092
:1004300003003a0080702100010020000200370014
:100440000000200001002000810f70000100320038
:1004500014000700000020000000e000020032004d
:1004600000000200000000004c0702000000000035
:100470000040da000000fe004440a9000000200017
:100480000000e0000300320000002000a00188000e
:100490004440a800000006008a1f78008b1f7800e7
:1004a0000000060091018800800478000000eb0045
:1004b0001a003700e284440032a0b4009905ba0063
:1004c000e284440032a0b4009906ba00e2844400f9
:1004d00032a0b4000006eb00476fde00fd07b2005b
:1004e000636ce10003003a00ebff07000000eb0043
:1004f0000a003700606ce10004003a00005deb0088
:100500008b05e900fdff3e00040037006168e10053
:10051000010032000086eb000b00070019c7ba008b
:100520001905ba000e04e00003003a000a00e000da
:10053000e0ff3a0000000600fe07b2009e018800be
:100540008a047800f5ff3700395dba008b05e900b1
:100550000c003200295dba008b05e900080032006a
:100560000c00e00003003a00e284440032a0b40032
:10057000f5ff370019ddba008b05e900faff3a00f4
:100580008904e800e184440032a0b40000000600c1
:10059000000000000000000000000000000000005b
:1005a00000000000000000003600f800809fbe0040
:1005b000829fbe00849fbe00869fbe000000fa009e
:1005c00030048000680060000000e0000600320097
:1005d000e04280000000e00002003200e0428000c3
:1005e000000001008660a9000080fa004f03be00f1
:1005f0004f02be004f01be004f00be003600f900a2
:10060000004006003600f800809fbe00829fbe00ba
:10061000849fbe00869fbe000000fa000043800059
:100620000000e000020032000043800000000100f2
:10063000b0982000104078008040e800b09820007a
:1006400001487800a098200011c0b300014878004c
:100650008460a9000080fa004f03be004f02be0074
:100660004f01be004f00be003600f90000400600fa
:100670003600f800809fbe00829fbe00849fbe00af
:10068000869fbe000000fa0010c0b30052e8b70019
:100690005d0807006000b8002c0807008780a900eb
:1006a0000080fa004f03be004f02be004f01be00a3
:1006b0004f00be003600f900004006003600f8008a
:1006c000809fbe00829fbe00849fbe00869fbe00aa
:1006d0000000fa008a40a900c11080000008200034
:1006e000008060000000e0000800320018e2a9006d
:1006f0002228ef0040418000200090008000eb00a5
:10070000010878002828ef000e0137001041800012
:100710008000eb00b200200003002000820f500098
:10072000838f5800fd003e00006001000b00370081
:100730003a003700760037009d003700f40037009c
:10074000c9003700da003700f1003700dc0037005d
:10075000f20037003500370051003700a08120003b
:1007600020009000620060000000e000f4003a0009
:10077000a08120001000900040418800a08120004e
:10078000100090001040780024e8b700a0812000fd
:10079000100090001000900030418800a0812000df
:1007a00010009000e6004000a08120001100980099
:1007b000a08120001000900080007800e0972000c9
:1007c000808f500003003a00a08120006196200035
:1007d00011009800a0812000a00090000100a1005d
:1007e00021009800a081200090009000a0812000ae
:1007f00010007800808f500004003a00a081200093
:10080000a00090000110a000210098001602a8008e
:100810002000200010418800ca0037001622a800de
:100820002000200010418800c6003700c110800061
:1008300000002800008060000000e0000800320096
:10084000a0812000604090008040e800a08120004e
:100850006140980040002000c1050700b900370042
:10086000504180008000d100f00f20000080600027
:1008700090108800504180006100600000407800c6
:100880000004e00003003200b000200010418800a6
:10089000ac0037003000200010418800a90037006c
:1008a000c110800000002800008060000000e0000f
:1008b00008003200a0812000604090008040e800e5
:1008c000a08120006140980040002000a40507009e
:1008d0009c0037001622a800504180004800de002e
:1008e000e6006000000f2000010070005041880009
:1008f000504180000000a0005041880010c0b300ab
:100900002ce8b70020002000104188008d0037003f
:100910002cc8bf00e14f50000a0032003041800077
:100920001000780050418800304180002000900085
:1009300070418800304180002040900030e8b700ce
:10094000010037002c68ef0051418000f00f2000bb
:10095000808f500009003600504180004800de00c2
:10096000e6006000000f2000010070009010880079
:10097000a000200010418800720037005041800024
:1009800090108800504180006100600000407800b5
:100990000004e000030032005000200010418800f5
:1009a00068003700300020001041880065003700e3
:1009b000c110800000002800008060000000e000fe
:1009c00009003200a0812000604090008040e800d3
:1009d000a08120006140980019e2a9005000200089
:1009e0005f0507005700370030c8bf008080fb005c
:1009f0008100e900cf08de00814078000040e90076
:100a000030e8b7000104e0001000320030418000ff
:100a1000660040003041880024c8bf000040e90063
:100a200024e8b70024c8bf000004e00003003a0037
:100a3000200020004a050700420037001622a800c7
:100a400020002000104188003e00370070418000e7
:100a5000904078008180fb00911088000000e80041
:100a60007041880037003700c11080000000280066
:100a7000008060000000e00009003200a08120003a
:100a8000604090008040e800a08120006140980014
:100a9000400020003205070019e2a90029003700b4
:100aa0001662a80080002000104188002500370051
:100ab00080002000104188001662a8002100370045
:100ac00070418000811080008140780001487800ea
:100ad0000000e8007041880030c8bf000040e90015
:100ae00030e8b70030c8bf000004e0000400320066
:100af00016a2a90060002000104188000200370003
:100b000016a2a800050507001682a8000d003700f0
:100b100020002000120507000a003700a0812000f5
:100b2000604090008040e800a08120006140980073
:100b3000600020000a0507000000000001003700e7
:100b4000000000000080fa004f03be004f02be000c
:100b50004f01be004f00be003600f9000040060005
:100b60003600f800809fbe00829fbe00849fbe00ba
:100b7000869fbe000200fa0090418000e20f500004
:100b800088003200e20f500003003900e30f5000ec
:100b900077003200950037003110800000402000bf
:100ba000008060000000e00005003a004110800075
:100bb00000022000008060000000e0000a00320017
:100bc0003110800000082000008060000000e0007c
:100bd00024003200411080000020200000806000ce
:100be0000000e0001f003200401080006400600040
:100bf0000000e0000c003a0010002000cd050700c6
:100c0000a04180000000e00004003200a04180000c
:100c10000110800081407800014878001000200019
:100c2000904188003600370000108000004f7800a7
:100c30000000eb00bf050700b04180000000e000ad
:100c400005003200b0418000104078000080fb00b9
:100c5000101088000782a800200020009041880022
:100c60002700370031108000004020000080600025
:100c70000000e0002200320041108000000220004d
:100c8000008060000000e0001d003a00401080007d
:100c9000640060000000e00004003a004868ef00d3
:100ca00030002000904188001300370048c8bf0082
:100cb0000004e0000d0032000000eb009d0507007d
:100cc000b04180000000e00005003200b04180002b
:100cd000104078000080fb00101088000782a800f8
:100ce0002000200090418800030037004868ef0092
:100cf000300020009041880000108000004f7800f4
:100d000090418000e10f500039003a00411080000e
:100d100000022000008060000000e0003600320089
:100d20004110800000042000008060000000e0000e
:100d30000b003a00a04180000000e00004003200f7
:100d4000a0418000011080008140780001487800b7
:100d500020002000770507005ae8b7002900370077
:100d600000108000004f780008c2a900250037005d
:100d7000300020006f0507005ae8b70010c0b3002c
:100d800048e8b7005ac8bf000004e0000200320083
:100d900000108000004f7800100020009041880073
:100da000180037004110800000002800008060001b
:100db0000000e0000b003a000000eb005d050700ba
:100dc000b04180000000e0000d003200b041800022
:100dd000104078000080fb00101088000782a800f7
:100de000080037003228ef0006003700ffff370009
:100df0000000000003003700000000000100370081
:100e0000000000008600a900401080007000600013
:100e10000000e00004003a0040108000680060001c
:100e20000000e0000400320042c8bf000004e000ff
:100e3000010032004268ef000080fa004f03be005c
:100e40004f02be004f01be004f00be003600f90049
:100e5000004006000040da000000fe00000005002f
:020000040000fa
:100e60000000fa000600fc0011028000f141b2000f
:100e7000110288000080fa00000006000200fa005b
:100e8000004f78001e41780041862000824878009b
:100e90000080fa00000006000600fa004a68ef0031
:100ea0004b68ef004c68ef004e28ef005028ef0031
:100eb0005268ef001028ef001228ef001428ef000e
:100ec0001628ef001868ef00608e20008040eb00cd
:100ed0000148780078080700c942a800c142a9006b
:100ee000c542a900d022a900d422a90009003700d8
:100ef0000060fe00cda2a80000502300c100200029
:100f00005f080700cda2a90000502300c100200007
:100f10005b08070051168000004020000080600040
:100f20000000e000f2ff3a00010037000060fe0020
:100f300010c0b3002a0307000004e000fbff3200ea
:100f4000cd82a800cda2a9006903070036070700db
:100f50006040a9006060a9008780a9008780a9007f
:100f60009780a9008660a9000060fe008780a90024
:100f70008780a9009780a9008660a900b8ff0700b4
:100f8000390107004d68ef004a68ef000040eb00b0
:100f900010479800a08620008040eb0001487800b0
:100fa000b086200041cfb30001487800c086200001
:100fb00041c2b30001487800d08620008040eb0099
:100fc00001487800c8060700cd82a8000040eb0069
:100fd000004f78003a003700601680004c00de00b9
:100fe000614060000004a200614060000080fb00de
:100ff000610060004c00dd006116800001c0a100ae
:101000000100700060168800601680004d00de0050
:10101000614060000004a200614060000080fb00ad
:10102000610060004d00dd006116800001d0a1006c
:10103000010070006016880000502300c1002000ed
:101040000f080700601680004c00de006140600061
:101050000004a200614060000080fb0061006000ad
:101060004c00dd006116800001c0a100010070008d
:1010700060168800601680004d00de006140600050
:101080000004a200614060000080fb00610060007d
:101090004d00dd006116800001d0a100010070004c
:1010a0006016880000f0290041022000f4070700c4
:1010b0000060fe00cd82a800cda2a9001e4fe8006e
:1010c0001e407800e94f5000c3ff36000100370092
:1010d00000000000511680000040200000806000e9
:1010e0000000e00001003a00b30207004dc8bf0055
:1010f0000004e00002003200db0007004d68ef0052
:101100000060fe004ac8bf000004e0002900320071
:101110004bc8bf000004e00003003200cda2a800cd
:10112000cd82a9004b68ef004cc8bf000004e0006e
:101130001f00320070428000814280004808de00bb
:10114000804078006086200001487800704280006e
:10115000814280004008de008040780070862000d8
:101160000148780070428000814280004809dd001b
:101170004800de0000007100c808de0080407800f2
:101180008086200001487800704280008142800003
:101190008040780090862000014878004c68ef007d
:1011a0006100070050060700cda2a900cd82a8006b
:1011b0004a68ef0052c8bf000004e000c4ff3200dc
:1011c000cda2a900cd82a800724280008342800097
:1011d00012079800230798006086200080c0eb006b
:1011e0000148780070862000e1cfb3000148780004
:1011f00080862000d1cfb30001487800908620007f
:10120000c1cfb30001487800470007005268ef00e3
:101210000040eb00004f78003a0037006016800075
:101220004c00de00614060000004a20061406000ec
:101230000080fb00610060004c00dd006116800052
:1012400001c0a100010070006016880060168000d7
:101250004d00de00614060000004a20061406000bb
:101260000080fb00610060004d00dd006116800021
:1012700001d0a1000100700060168800005023001a
:10128000c10020007e070700601680004c00de00d1
:10129000614060000004a200614060000080fb002b
:1012a000610060004c00dd006116800001c0a100fb
:1012b0000100700060168800601680004d00de009e
:1012c000614060000004a200614060000080fb00fb
:1012d000610060004d00dd006116800001d0a100ba
:1012e000010070006016880000f029004102200013
:1012f000630707000060fe00cd82a800cda2a90010
:101300001e4fe8001e407800e94f5000c3ff360032
:101310005268ef004b68ef004c68ef00e2040700f2
:10132000f10507006bff37000000fa00d462a80047
:10133000001027002100200051070700d462a900f7
:101340000080fa00000006000000fa006040a900da
:101350006060a9008780a9008780a9009780a90004
:101360008660a900d4c2a900cd02a8000010270001
:101370002100200042070700cd02a9000400370029
:1013800000102700210020003d0707000060fe003c
:101390001116800000202000008060000000e000a6
:1013a000f7ff3200d4c2a8001000370000a02600ca
:1013b00081012000320707000060fe0060168000f7
:1013c0004c00de00614060000004a200614060004b
:1013d0000080fb00610060004c00dd0061168000b1
:1013e00001c0a10001007000601688001116800085
:1013f00000202000008060000000e000ebff3a00c9
:10140000cd82a9001000370000a026008101200035
:101410001b0707000060fe00601680004c00de0025
:10142000614060000004a200614060000080fb0099
:10143000610060004c00dd006116800001c0a10069
:101440000100700060168800111680000020200046
:10145000008060000000e000ebff3200a205070002
:101460000080fa00000006000200fa00608e2000f2
:10147000104f78001e407800e44f500002003a0000
:10148000120007000f0037001e80fb0061006000a3
:10149000004078000004e00002003200cc82a90085
:1014a00001003700cc82a8001e80fb0062006000b3
:1014b0000000e00002003200d442a9000100370021
:1014c000d442a8000080fa00000006000200fa00e2
:1014d000cda2a9000040eb00004f780011003700ba
:1014e0000060fe0000502300c1002000e406070059
:1014f000601680004900de00614060000004a20028
:10150000614060000080fb00610060004900dd0078
:10151000611680000190a100010070006016880033
:101520001e4fe80070ccb3009e40780080cf500082
:10153000ebff3600cd22a900d422a9001428ef0029
:101540001628ef00120037005116800000402000de
:10155000008060000000e00007003a00a04080002a
:10156000b140800061004000e0804800a040880059
:10157000b1408800020037001428ef001628ef0061
:1015800000502300c1002000bd0607000060fe00df
:10159000a2408000b34080009000200001002000a5
:1015a000800f5100818f5900e7ff3600100037008f
:1015b0000060fe0000502300c1002000b0060700bc
:1015c000601680004c00de00614060000004a20054
:1015d000614060000080fb00610060004c00dd00a5
:1015e0006116800001c0a100010070006016880033
:1015f0005116800000402000008060000000e000e4
:10160000ebff3200cd82a900d422a8000080fa00ae
:10161000000006000000fa0000e82300010020009e
:10162000970607000080fa00000006000400fa0098
:10163000000f7800110798001100370000e8230020
:10164000010020008e0607000060fe001e009000d2
:1016500000f0a7000000ea000000e9004f00de00f3
:10166000004078009e0090008100e900110798007a
:101670000004e000020032000040eb0005003700eb
:101680001e00780010007800e10f5000ebff3200e0
:1016900010c0b3000080fa00000006000800fa0045
:1016a000404798005147980062479800100020007a
:1016b000000f7800de40900021479800ee40900037
:1016c000314798004e4090008080fb000e80e8007b
:1016d0008e0178000101780021c0b3002d020700bf
:1016e000210320000e007800d0ff07000004e00076
:1016f000050032001e007800e20f500002003a00a0
:1017000010002000010037000000eb0000407800ce
:101710000080fa00000006001400fa00604f9800f4
:10172000714f9800020f9800235798001000200076
:10173000000f78006e4890000081fb00ef0047002a
:101740000e80e8008201780012c0b3009802070002
:101750006e4890008080fb000e80e800660040002c
:10176000810178002e5190008e08900078020700c9
:101770000e80e8000e0178008000780020c0b300e1
:1017800036020700210320000e007800a7ff0700a3
:101790000004e000050032001e007800e20f500057
:1017a00002003a0010c0b3002900370010002000ea
:1017b000000f78006e4890008080fb006f004700ab
:1017c0008e0178000101780011c0b300f10107001b
:1017d000210320000e00780094ff07000004a200ff
:1017e0000004e00003003a001e007800e20f500001
:1017f000020032000040eb0015003700100020000e
:10180000000f78006e4890000080fb008e01780089
:1018100000017800ae5090000e089000f60107001d
:10182000210320000e00780080ff07000004e00084
:10183000050032001e007800e20f500002003a005e
:1018400010002000010037000000eb00004078008d
:101850000080fa00000006000400fa00004f780043
:10186000114798001207980013c0b3001e019000a2
:101870009e4090001e407800a7ff07000080fa00fd
:10188000000006000200fa000040eb00004f780064
:1018900064c8bf000e017800f1c0b300eeff07007e
:1018a0000004a2000004e000020032000040eb004f
:1018b000070037009e40780040c4b30000c06800b5
:1018c0000080fb000000e9004f00de0000407800cf
:1018d0000080fa00000006000000fa0040882000a6
:1018e00011cab3000148780080c1b3005f0007004f
:1018f0000004e0000300320080c1b30064e8b700d8
:101900000c00370090c1b300580007000004e0004d
:101910000300320090c1b30064e8b700050037004f
:1019200050882000e1ceb300014878000040eb0071
:101930002000370041862000914078005088200028
:101940000148780064c8bf00c2c0b30011c2b30030
:1019500052ff07000004a2000004e000050032006e
:101960006088200021ccb300014878000040eb00e3
:101970001000370064c8bf0002c5b30001c2b30045
:1019800046ff07000004a2000004e000050032004a
:101990007088200011ccb300014878000040eb00b3
:1019a00004003700808820008040eb000148780068
:1019b00010c0b3000080fa00000006000c00fa001e
:1019c00030079800410798005207980064c8bf008c
:1019d00063c0b3000e01780081c2b3004eff070060
:1019e0000004a2000004e000020032000040eb000e
:1019f0001c0037001e4090000080fb00c800dd0086
:101a00001e4078000080fb0001007000800078001c
:101a10003e009000010878003e4090000080fb00ee
:101a2000c800dd002e4090000080fb000100700027
:101a3000800078004e009000010878005e40900021
:101a40000080fb00c800dd004e4090000080fb00dd
:101a500001007000800078005e00900001087800ae
:101a600010c0b3000080fa00000006000400fa0075
:101a7000204798000040eb00004f780013c0b300ef
:101a80000e017800f1c0b3002e40900022ff070045
:101a90000004e000060032009e40780040c4b3001d
:101aa00080cf500002003a001000200001003700f3
:101ab0000000eb00004078000080fa000000060003
:101ac0000c00fa000060fe006a014700e8004700d1
:101ad00066004700b9ff07000004e0002200320062
:101ae0003e009000000f78004e0090001007980014
:101af0005e009000200798001e0078004800de007d
:101b000080407800e0862000014878001e007800c0
:101b100080407800f0862000014878001e00900088
:101b20004800de00804078000087200001487800ef
:101b30001e00900080407800108720000148780047
:101b40002e0090004800de008040780020872000b2
:101b5000014878002e0090008040780030872000f7
:101b60000148780012003700e086200080c0eb00ba
:101b700001487800f086200080c0eb000148780022
:101b80000087200080c0eb0001487800108720000b
:101b900080c0eb00014878002087200080c0eb0067
:101ba000014878003087200080c0eb0001487800b1
:101bb0000080fa00000006000000fa000040eb0080
:101bc000070007000004e00003003200d422a9004f
:101bd000c542a9000000fe000080fa0000000600d7
:101be0000400fa00204798000040eb00004f780006
:101bf0000040eb0010479800110037001e4fe8002e
:101c0000cd82a800cda2a90000a02600810120005d
:101c10001b050700cda2a800cd82a900005023001b
:101c2000c1002000160507001e407800e54f500057
:101c30000300360010c0b3001047980005003700bd
:101c40005116800000402000008060000000e0008d
:101c5000eaff32002e4090000004e0000500320050
:101c6000c542a800d422a800cd82a800cda2a90018
:101c700002003700cda2a800cd82a90000502300a9
:101c8000c1002000fe040700040037000060fe00d1
:101c900000502300c1002000f90407005116800005
:101ca00000402000008060000000e000f7ff3200ec
:101cb00000502300c1002000f10407000400370099
:101cc0000060fe0000502300c1002000ec0407006b
:101cd0005116800000402000008060000000e000fd
:101ce000f7ff32001e4090000080fa00000006005e
:101cf0000200fa00c502a9000040eb00004f780086
:101d000030003700cc82a900d442a90000402d0049
:101d100001032000da0407000060fe00cc82a80066
:101d2000d442a80000402d0001032000d404070085
:101d3000cc82a90000402d0001032000d004070040
:101d4000cc82a80000402d0001032000cc04070035
:101d50000060fe0000402d0001032000c8040700c1
:101d6000601680004c00de00614060000004a200ac
:101d7000614060000080fb00610060004c00dd00fd
:101d80006116800001c0a10001007000601688008b
:101d9000601680004d00de00614060000004a2007b
:101da000614060000080fb00610060004d00dd00cc
:101db0006116800001d0a10001007000601688004b
:101dc0001e4fe8001e407800e44f5000cdff360063
:101dd000cd82a900cda2a80000402d000103200063
:101de000a70407000060fe000060fe00cc82a9008e
:101df000070037000060fe00511680000040200000
:101e0000008060000000e00001003a006aff070067
:101e100010168000610060000000e000f5ff3a004d
:101e2000cd82a800cda2a900cc82a800002021006c
:101e3000a1072000920407000060fe00d442a90020
:101e4000cd82a900cda2a800070037000060fe00e7
:101e50005116800000402000008060000000e0007b
:101e600001003a0054ff0700101680006200600075
:101e70000000e000f5ff3a00cd82a800cda2a90045
:101e8000d442a8000080fa00000006000000fa001a
:101e9000a08120006196200011009800a081200000
:101ea0006196200001087800a0812000a000900029
:101eb0000110a00021009800a0812000a000900047
:101ec0000100a10021009800a08120008040eb00cb
:101ed00061409800f0312000a01088000000280028
:101ee000b01088001822ef008a40a9008a20a900bb
:101ef0009a40a8009a20a8000080fa00000006007e
:101f00000200fa00a0812000e0409000014f78001c
:101f10001e4078000080fa00000006000000fa0071
:101f200030418000660040003041880024c8bf0076
:101f30000040e90024e8b70024c8bf000004e00026
:101f400003003a00400020001041880002003700e2
:101f500010002000104188000080fa0000000600f8
:101f60000200fa00000f78001642a80040418000ed
:101f7000200090000000e00003003200404180009b
:101f8000200090001e0878002228ef000080fa0050
:101f9000000006000800fa00000f780021479800b2
:101fa0002207980033079800a081200020009000ad
:101fb000610060000000e0000a003a00ae019000fd
:101fc0002e4190009e007800409820007800070085
:101fd0003e0190004198200010c0b3001f00070090
:101fe000030037003e0090008000eb0001087800fd
:101ff0000080fa00000006000800fa00000f7800d8
:10200000214798002207980033079800a0812000fc
:1020100020009000610060000000e0000a003a002b
:10202000ae0190002e4190009e007800e0972000c5
:10203000470007003e019000e197200010c0b30068
:1020400006000700030037003e0090008000eb0010
:10205000010878000080fa00000006000600fa007f
:10206000004f78001107980022079800a0812000f7
:1020700020009000610060000000e0002f003a00a6
:102080002e0090001100200001087800a08120009f
:10209000100078009e00900011009800a0812000a0
:1020a000100078001e487800a08120001000780001
:1020b000ae00900021009800a08120001000780060
:1020c000e6004000a081200001087800a0812000e7
:1020d0001000780080007800e0972000808f50008a
:1020e00003003a00a08120006196200001087800da
:1020f000a0812000a00090000110a1002100980004
:10210000a081200090009000a081200010007800a5
:10211000808f500004003a00a0812000a0009000b1
:102120000100a00021009800104180000000e000a4
:1021300005003a008a40a800030037002e009000f6
:102140008000eb00010878000080fa000000060023
:102150000800fa00000f7800110798004247980025
:10216000330798003e009000000040008000780097
:102170001e007800010878001e007800100078002a
:10218000800078000100a0001e007800010878009f
:102190001e007800ce409000214098001e0078007c
:1021a0009e009000210098000080fa0000000600c8
:1021b0000800fa00000f78001107980042479800c5
:1021c000330798003e009000000040008000780037
:1021d0001e007800010878001e007800ce409000b4
:1021e000214098001e0078009e0090002100980079
:1021f0000080fa00000006000000fa00a081200024
:10220000200090006200600000f0a7000000ea00db
:102210000000ea004f00de00004078000080fa0075
:10222000000006000000fa00a081200020009000bd
:102230006100600000f0a7000000ea000000ea0072
:102240004f00de00004078000080fa000000060029
:102250000000fa0000002800301088000822ef007b
:1022600000052000250007000000eb001d0007000e
:102270003228ef000000eb00060007000000eb0032
:102280000a0007008600a9009600a8000080fa0056
:10229000000006000200fa00000f78009e0078009f
:1022a000b14188000080fa00000006000200fa0038
:1022b000000f78009e007800a14188000080fa009d
:1022c000000006000000fa00b04180000080fa0023
:1022d000000006000000fa00a04180000080fa0023
:1022e000000006000200fa00000f78009e0078004f
:1022f000611088000080fa00000006000200fa0069
:10230000000f7800f00720009e007800808f5000ba
:10231000020036000742a800010037000742a9006a
:102320003228ef009e007800511088000080fa00eb
:10233000000006000200fa00000f78001e0078007e
:10234000e10f500012003200e10f5000030039008d
:10235000e20f500015003200580037002042800084
:1023600061862000810040000000e80020428800d3
:1023700001007800c7ff070021428000f00f200015
:10238000808f5000480036004428ef004b00370093
:102390004628ef0010c0b30059e8b7004268ef00cc
:1023a00080852000c1ff07004400370059c8bf00e6
:1023b0000004e0001c003200304280000000e00019
:1023c00008003a0058c8bf000080fb004800dd004c
:1023d00020428800304280000000e800304288003f
:1023e0000a00370030428000e10f500007003a0039
:1023f00058c8bf008080fb002042800001007000b0
:10240000204288004628ef005968ef0021428000f2
:10241000f00f2000808f50002500360000102000b3
:10242000204288002500370042c8bf000004e000b9
:1024300002003a0020428000f041880021428000e2
:10244000f0072000808f50000500360020428000f9
:102450008285200012417800618620008270780019
:102460002142800000082000808f500002003a00c6
:1024700010c0b3004de8b700204280000000e80023
:102480002042880042c8bf000040e80042e8b70090
:1024900021428000f00f2000808f5000060036009f
:1024a0004428ef000500370000000000030037005b
:1024b00000000000010037000000000010c0b30061
:1024c0000080fa00000006000000fa000a21ef0078
:1024d000400f2000700888000621ef00f03f220026
:1024e000600888008000280080088800c0982000cc
:1024f0008040eb00014878000080fa0000000600f0
:102500000000fa002104800000102000008060001c
:102510000000e00009003200d09820001040780050
:102520008040e800d098200001487800c098200042
:1025300011c0b300014878008500a9000080fa00ae
:10254000000006000400fa00008fbe001e007800a4
:10255000600888001e00be004008de000000780011
:10256000700888000080fa00000006000400fa00ed
:102570000080eb008080eb00008fbe0070088000c0
:102580008000eb00c001dd00020020006008800038
:102590008000eb00001f7100019771001e00be005b
:1025a0000080fa00000006000400fa00008fbe0060
:1025b0001e00be004008de000000780040088800d1
:1025c0001e007800300888000080fa000000060035
:1025d0000800fa000080eb008080eb00008fbe0056
:1025e00031088000210798004108800031079800d9
:1025f0003e0090008000eb00c001dd0002002000e2
:102600002e0090008000eb00001f71000197710008
:102610001e00be000080fa00000006000000fa0064
:10262000c09820008040eb000148780011e1a8002c
:102630000080fa00000006000000fa0011e1a90085
:102640000080fa00000006000200fa00c098200096
:10265000104f78001e4078000004e00003003200b4
:10266000c09820008040eb00014878001e407800b0
:102670000080fa00000006000000fa00d098200058
:10268000104078000080fb000080fa000000060087
:102690000000fa00d09820008040eb00014878004c
:1026a0000080fa00000006000000fa001821ef0088
:1026b000400f2000e00888001421ef00f03f2200c6
:1026c000d008880080002800f00888001fe1a900d9
:1026d0006000b8001d0007008780a9009780a8004f
:1026e0000080fa00000006000400fa00008fbe001f
:1026f0001e007800d00888001e00be004008de00e2
:1027000000007800e00888000080fa000000060061
:102710000400fa000080eb008080eb00008fbe0018
:10272000e00880008000eb00c001dd000200200016
:10273000d00880008000eb00001f7100019771003d
:102740001e00be000080fa00000006000400fa002f
:10275000008fbe001e00be004008de0000007800b2
:10276000b00888001e007800a00888000080fa00e9
:10277000000006000800fa000080eb008080eb00fb
:10278000008fbe00a108800021079800b1088000da
:10279000310798003e0090008000eb00c001dd0092
:1027a000020020002e0090008000eb00001f71004e
:1027b000019771001e00be000080fa0000000600b4
:1027c0000000fa000080fa00000006000200fa0093
:1027d000000f78009780a9009e00780011438800c0
:1027e0009780a8000080fa00000006000000fa00b0
:1027f000009920008040eb00014878001fe1a8000c
:102800000080fa00000006000000fa001fe1a900a5
:102810009780a9000080fa00000006000200fa007c
:1028200000992000104f78001e4078000004e0005e
:1028300003003200009920008040eb00014878003e
:102840001e4078000080fa00000006000000fa0038
:1028500010992000104078000080fb000080fa00f2
:10286000000006000000fa00109920008040eb00f4
:10287000014878000080fa00000006000000fa001d
:102880000021ef0000002800100888000002280046
:1028900020088800004380000000e00002003a00a9
:1028a00060492100240007008460a9009460a8000a
:1028b000a09820008040eb00014878000080fa00da
:1028c000000006000200fa00000f78009e00780069
:1028d00011088800a09820008040eb000148780093
:1028e0000080fa00000006000000fa0010088000d6
:1028f0000080fa00000006000200fa00000f7800d5
:102900009e00780001088800a09820008040eb001d
:10291000014878000080fa00000006000000fa007c
:10292000000880000080fa00000006000000fa00a5
:102930000080fa00000006000200fa00000f780094
:102940009460a9009e007800014388009460a8006c
:102950000080fa00000006000000fa00a0982000a5
:102960008040eb00014878009460a80005e1a800d1
:102970000080fa00000006000000fa0005e1a9004e
:102980009460a9000080fa00000006000200fa002e
:10299000a0982000104f78001e4078000004e0004e
:1029a00003003200a09820008040eb00014878002e
:1029b0001e4078000080fa00000006000000fa00c7
:1029c000b0982000104078000080fb000080fa00e2
:1029d000000006000000fa00b09820008040eb00e4
:1029e000014878000080fa00000006000000fa00ac
:1029f000c422ef00cc22ef00d422ef007029200087
:102a000000168800f04e240040168800103a20007e
:102a100080168800c982a9006820ef006a20ef00b4
:102a20006a00a8006aa0a800c622ef00ce22ef002c
:102a3000d622ef00f0ff210060198800113a8000d3
:102a4000f00b200000816000600420007105200070
:102a500023742000804978008149780082497800f9
:102a600051368000f00f2e00808060000040210071
:102a70000100700050368800a136800000fe2f0053
:102a8000008060003000b300a0368800213580004f
:102a900000fe2f00008060005001b3002035880048
:102aa000103a8000000178000260a000600420005d
:102ab0007105200023742000804978008149780046
:102ac000824978006040a9006060a9006200a90006
:102ad000e0772100100007008660a9009660a8003a
:102ae0000080fa00000006000000fa006040a80024
:102af0006060a900e0772100070007008660a90058
:102b00009660a8000080fa00000006000000fa00ad
:102b10000080fa00000006000200fa00000f7800b2
:102b20009660a9009e007800e14288009660a800a7
:102b30000080fa00000006000200fa00000f780092
:102b40001e007800f4ff07000080fa000000060075
:102b50000000fa000a21ef0000042000700888003d
:102b60000000280090088800e09820008040eb00da
:102b7000014878000080fa00000006000000fa001a
:102b80002104800000102000008060000000e000b0
:102b900009003200f0982000104078008040e800e2
:102ba000f098200001487800e098200011c0b300a0
:102bb000014878008500a9000080fa0000000600a6
:102bc0000200fa00000f78009e007800710888006b
:102bd000e09820008040eb00014878000080fa0077
:102be000000006000000fa00700880000080fa0073
:102bf000000006000200fa00000f78009e00780036
:102c000051088800e09820008040eb0001487800df
:102c10000080fa00000006000000fa005008800062
:102c20000080fa00000006000000fa00e098200092
:102c30008040eb000148780013e1a8000080fa0012
:102c4000000006000000fa0013e1a9000080fa006d
:102c5000000006000200fa00e0982000104f780003
:102c60001e4078000004e00003003200e0982000dd
:102c70008040eb00014878001e4078000080fa0098
:102c8000000006000000fa00f098200010407800d4
:102c90000080fb000080fa00000006000000fa003f
:102ca000f09820008040eb00014878000080fa0096
:102cb000000006000000fa008021ef008221ef00f2
:102cc000e0002000200c8800200c800000407800ec
:102cd000674060000080fb00f04288000080fa003e
:102ce000000006000000fa000080fa000000060064
:102cf0000000fa0020048000640060000000e00092
:102d000002003200f7ff07008440a9000080fa00ab
:102d1000000006000000fa00f04280000040780049
:102d2000674060000080fb0067006000220c8000ac
:102d300081ff2f008100610001007000200c8800dd
:102d40000080fa00000006000000fa00210c80005c
:102d500080ff2f0000806000200c88000080fa00b7
:102d6000000006000200fa00000f78009e007800c4
:102d7000010c88000080fa00000006000200fa0042
:102d8000000f78009e007800110c88000080fa0087
:102d9000000006000000fa00200480004200de006f
:102da000614060000080fb0000f0a7000000ea0026
:102db0000000ea004f00de00004078000080fa00ca
:102dc000000006000400fa00100798001e009000a2
:102dd0000000e0000a003a00200c80004400de0001
:102de000614060000080fb0000f0a7000000ea00e6
:102df0000000ea004f00de00004f780001003700bd
:102e0000000000001e4078000080fa00000006006c
:020000040000fa
:102e10005408000004000000000000005c080000ee
:102e200002000000000000005e0800000200000038
:102e3000000000008a0900000200000000000000fd
:102e40006008000002000000000000008c09000083
:102e500002000000000000008e09000002000000d7
:102e600000000000900900000200000000000000c7
:102e70006208000002000000000000006609000077
:102e800024000000000000001a08000018000000e4
:102e900000000000660800000001000000000000c3
:102ea0003208000018000000000000005808000070
:102eb0000400000002000000aa0101000000000060
:102ec000640800000200000002000000180000007a
:102ed000000800001a000000000000004a0800007e
:0c2ee0000a0000000000000000000000dc
:020000040000fa
:102eec000000fa008660a9000080fa0000000600cd
:102efc000000fa006000b80011fe070038fe070061
:102f0c006040a9008780a9009780a800007a210062
:102f1c00fefe070010c0b3004ae8b70010c0b300b3
:102f2c004be8b7006060a8008660a9000080fa003a
:102f3c00000006000000fa0030fe07000afe070041
:102f4c0070428800814288006060a900e07721000f
:102f5c00eefe070010c0b3004ce8b70010c0b30081
:102f6c004ae8b7006040a8008780a9009780a900b4
:102f7c008660a9000080fa00000006000000fa003c
:102f8c0010c0b30053e8b7008660a9000080fa00b7
:102f9c00000006000000fa0061058000f0ff280028
:102fac000080600000c0a000600588006105800002
:102fbc0080ff2f00008060000000a00060058800ea
:102fcc00e1058000f08f2f00008060000090a000d1
:102fdc00e005880081058000f0ff2800008060007b
:102fec0000c0a000800588009105800080ff2f00a4
:102ffc00008060000000a000900588002105800082
:10300c00f0ff28000080600000c0a00020058800b0
:10301c000080fa00000006000000fa0000102300f7
:10302c00203a88004827ef007027ef007227ef0046
:10303c007427ef002200200080072000a109200047
:10304c0033742000804978008149780082497800e7
:10305c000001eb00600420007105200023742000a7
:10306c008049780081497800824978000080fa0014
:04307c00000006004a
:020000040000fa
:10308000f03fb1000180b10006003500ee030900f9
:1030900000000000403fb1000180b100fbff3d0097
:1030a0001000b000203fb000020035000080090091
:0830b000000000000000060012
:020000040000fa
:1030b8000000fa004bfe0700d8ff0700b6ff070024
:1030c80077fd0700fefc07006efb07005efc0700ab
:1030d8009dfe0700e7fd07000080fa0000000600db
:1030e800809fbe00ec80570031007800a042880025
:1030f8001100780056e8b7004f00be000000060037
:020000040000fa
:020000040001f9
:0457f800bafa0000f9
:020000040000fa
:020000040001f9
:0457fc00fb3f00006f
:00000001FF
